:020000040800F2
:1000000090120020F90100081D350008AD330008EA
:1000100019350008252C0008175F000800000000B3
:10002000000000000000000000000000DD56000895
:10003000C12F000800000000B1350008F15700088A
:10004000130200081302000813020008C139000857
:10005000130200081302000813020008130200082C
:1000600013020008C32F000813020008130200083F
:10007000130200081302000813020008130200080C
:1000800013020008130200081302000813020008FC
:1000900013020008130200081302000813020008EC
:1000A0001302000855580008130200081302000844
:1000B00013020008130200081302000813020008CC
:1000C00013020008130200081302000813020008BC
:1000D00013020008695A0008B55B00081D5D00089E
:1000E000130200081302000813020008130200089C
:1000F000130200081302000813020008130200088C
:1001000013020008913D00081302000813020008C2
:10011000655A0008675A0008130200081302000815
:10012000130200081302000813020008130200085B
:1001300000F002F800F050F80AA090E8000C8244A9
:100140008344AAF10107DA4501D100F045F8AFF286
:10015000090EBAE80F0013F0010F18BFFB1A43F0A5
:1001600001031847C4AB0000E4AB0000103A24BF01
:1001700078C878C1FAD8520724BF30C830C144BF0C
:1001800004680C607047000000230024002500264E
:10019000103A28BF78C1FBD8520728BF30C148BFEA
:1001A0000B60704766290AF08B81642900F0C480D7
:1001B000002070471FB501F055F904000020002110
:1001C00009F0B0FB401C60600020002109F094FBA6
:1001D000E0601FBD10B510BD01F006FC1146FFF731
:1001E000E9FF08F02BFA01F05FFE03B4FFF7F2FF1E
:1001F00003BC05F013FF0000094880470948004789
:10020000FEE7FEE7FEE7FEE7FEE7FEE7FEE7FEE7C6
:10021000FEE7FEE704480549054A064B7047000023
:10022000F557000831010008900C002090120020C2
:10023000900E0020900E0020704710B54C1084EAFC
:10024000530404D54042C1F1000138BF491E1B428E
:1002500004D55242C3F1000338BF5B1E00F036FBE9
:1002600014F0804F04D04042C1F1000138BF491E54
:1002700014F0004F04D05242C3F1000338BF5B1E9C
:1002800010BD00000FB41CB5084B06AA7B4469469C
:100290000090059800F0FDFD04460020694600F03E
:1002A0000BFE20461CBC5DF814FB0000290C00006E
:1002B0000FB47CB50C0009AA009001D02044401E68
:1002C000084B7B4469460190089800F0E2FD054622
:1002D0001CB10020694600F0EFFD28467CBC5DF8AB
:1002E00014FB0000FD0B000070B504468569006832
:1002F000C10601D5302600E02026C00707D070BD1A
:10030000D4E9012130469047206A401C20626D1ECE
:10031000F6D570BD70B5044685690078C00707D171
:1003200070BDD4E9012120209047206A401C206242
:100330006D1EF6D570BD00002DE9F0410646002483
:1003400010687529314616A510D0AFF3008000283B
:1003500002DA404213A507E031688A0701D512A5E9
:1003600002E0490704D511A5012401E0AFF30080A4
:1003700000210A2206F1240709E0B0FBF2FCB0FBE1
:10038000F2F302FB1C00303078541846491C002858
:10039000F3D123462A463046BDE8F04100F00DBBBC
:1003A000000000002D0000002B00000020000000D5
:1003B0002DE9F05F894604464FF0000ADFF824B1CA
:1003C000FB44C0F820A02046E168884700287DD083
:1003D000252806D0D4E901219047206A401C2062DC
:1003E000F1E700255F462046E16888472028064659
:1003F00007DB312E05D2B81910F8200C08B10543DF
:10040000F1E7A80701D525F00405C4F81CA00027D2
:10041000C4F818A02A2E09D0304605F0F8FD38B3EC
:1004200004EB8708303EC8F8186019E059F8041B3F
:10043000204604EB87029161E1688847012F064658
:1004400018D1E069002820DA25F020051DE0D8F851
:10045000180000EB800006EB40003038C8F81800A8
:100460002046E1688847064605F0D1FD0028EED118
:10047000012F0AD02E2E08D12046E16888477F1C24
:100480000646022F45F02005C4DBA069002803DAE8
:10049000404245F00105A061E80701D025F01005B4
:1004A000A6B1A6F14100192802D8203645F400650E
:1004B0004A463146204625604D46FFF773FE60B13F
:1004C000012807D0ED1D25F0070000E007E000F14E
:1004D000080978E705F1040975E730467AE7206AEC
:1004E000BDE8F09F9EA700000FB400B58DB010A925
:1004F000099000910B904FF0FF300A9000200C9073
:10050000064878440690064878446A4607900F9952
:1005100009A800F045FF0DB05DF814FBBB0E00000C
:10052000D30E00002DE9FF5F1D464FF0FF3B9146C3
:100530004FF000085F46D5E90146A96901987F1C84
:100540008847296A824688470028F6D1BAF1FF3FDA
:100550000CD0002E24F4C06419DD600614D5BAF165
:100560002B0F09D0BAF12D0F0ED103E0584604B07D
:10057000BDE8F09F44F48064A96901987F1C884716
:10058000761E8246002E02DDBAF1300F03D0B9F19B
:10059000000F26D032E0A969761E01987F1C44F432
:1005A00000748847002E824605DDBAF1780F06D028
:1005B000BAF1580F03D0B9F1000F10D01EE0B9F115
:1005C000000F02D0B9F1100F18D1A969761E019859
:1005D0007F1C24F4007488478246102002E0082023
:1005E00000E00A20814609E0A96908FB0908761E97
:1005F00001987F1C44F4007488478246002E05DD74
:100600004946504600F065FC0028EDDAE96901989A
:100610008847A00502D46FF00100A8E7E00725D1C4
:10062000600613D5600502D5C8F1000000E0404621
:1006300029680A1D2A600968220501D5087015E09D
:10064000220701D5088011E008600FE02868011D2D
:1006500029600068210502D580F8008006E02107A6
:1006600002D5A0F8008001E0C0F8008038467EE79F
:100670002DE9FF5F4FF00008994614464646916900
:10068000D2E901A7DDF838B001988847054659EA54
:100690000B0005D009E0A1690198761C8847054642
:1006A000216A284688470028F5D1681C03D05FEAF4
:1006B000CA7005D015E04FF0FF3004B0BDE8F09FE0
:1006C0002068011D2160D0F800800AE05FEACA704E
:1006D00001D108F8015BA169761C01987F1E88474B
:1006E0000546002F1ADD681C18D0B9F1000F0DD097
:1006F000E81705EBD060421120F01F0059F82210D6
:100700002A1A012090400142E0D107E0BBF1000F1E
:10071000DCD12846216A88470028D7D0E1690198B2
:100720008847BBF1000F07D1002E05DD5FEACA70D4
:1007300002D1002188F80010A068B84203DDBBF1A7
:10074000000F03D017B16FF00100B6E73046B4E7F1
:1007500040EA010310B59B070FD1042A0DD310C83E
:1007600008C9121F9C42F8D020BA19BA884201D990
:10077000012010BD4FF0FF3010BD1AB1D30703D0D8
:10078000521C07E0002010BD10F8013B11F8014B8E
:100790001B1B07D110F8013B11F8014B1B1B01D1AA
:1007A000921EF1D1184610BD032A40F2308010F09D
:1007B000030C00F0158011F8013BBCF1020F6244FC
:1007C00098BF11F801CB00F8013B38BF11F8013B8D
:1007D000A2F1040298BF00F801CB38BF00F8013B3A
:1007E00011F0030300F00C86083AC0F0088051F8BD
:1007F000043B083A51F804CBA0E80810F5E7121DB5
:100800005CBF51F8043B40F8043BAFF30080D207D3
:1008100024BF11F8013B11F801CB48BF11F8012B9F
:1008200024BF00F8013B00F801CB48BF00F8012BC2
:1008300070474FF000020429C0F0128010F0030C42
:1008400000F01B80CCF1040CBCF1020F18BF00F8C3
:10085000012BA8BF20F8022BA1EB0C0100F00DB872
:100860005FEAC17C24BF00F8012B00F8012B48BFD0
:1008700000F8012B70474FF0000200B51346944674
:100880009646203922BFA0E80C50A0E80C50B1F1E8
:100890002001BFF4F7AF090728BFA0E80C5048BFFC
:1008A0000CC05DF804EB890028BF40F8042B08BF9A
:1008B000704748BF20F8022B11F0804F18BF00F896
:1008C000012B7047704770477047704753EA020C1E
:1008D00000F069802DE9F04B4FF00006002B1FBFA0
:1008E000B3FA83F503FA05F424FA05F65E4012BF65
:1008F0001643B2FA82F502FA05F4C5F120051EBFCF
:1009000022FA05FC44EA0C04203556EA044C4FEA6E
:10091000144418BF641C4FF000084FF000099042C7
:1009200071EB030C39D3002919BFB1FA81F701FA31
:1009300007F6B0FA80F700FA07F6C7F120071EBFE6
:1009400020FA07FC46EA0C062037B6FBF4FCA7EBBE
:100950000507103F07F01F0BCBF120060CFA0BFB2D
:100960002CFA06F644BFB3460026202FA4BF5E46ED
:100970004FF0000B5BEA060C08BF4FF0010B19EBC0
:100980000B09ABFB027C48EB0608C01B06FB02CC44
:100990000BFB03CC71EB0C01C1E70B460246414651
:1009A0004846BDE8F08B13B54FF000004FF0000152
:1009B000AFF30080BDE81C4070472DE9F0470D46BD
:1009C00099469246044600F124080168880604D539
:1009D000E06921F01001216000E00120A84201DD62
:1009E000471B00E00027A1697A1902EB0900081AE9
:1009F000A0612078C00602D42046FFF775FC0026CF
:100A000008E0D4E901211AF806009047206A401C4A
:100A1000761C20624E45F4DB2078C0060AD52046BD
:100A2000FFF762FC06E0D4E9012130209047206AFC
:100A3000401C2062381EA7F10107F4DC07E0D4E96E
:100A4000012118F805009047206A401C2062281EEA
:100A5000A5F10105F3DC2046FFF75CFC20780006D9
:100A600002D50220BDE8F0870120FBE770472DE9A1
:100A7000FF4F0C461E464FF0FF378BB0D2E9000106
:100A8000DDF860800A908A46C1F30A5505B93D46F3
:100A9000002108464FF00000BAF1000F00F44000BA
:100AA00005DA00EB80004FF4400101EA50004FEA04
:100AB0009059B9F1010F00DDB9460A9850EA4A0091
:100AC0000ED044F61050A5F2FF3545432F14B8F16F
:100AD000000F1ED07542291E1EDDC9F100021CE068
:100AE000B8F1010F4FF0000001D0302103E0F243D4
:100AF00005E02154401CB042FBDB304600220021BF
:100B000021540B99C1F80880C1E900200FB0BDE85D
:100B1000F08FBD1B6D1CDEE74A4600DA694206A86D
:100B200000F0F0FE06AB93E8070003AB83E8070094
:100B300050460A9901F015FA8DE80700A0F500501B
:100B40001F3800900398002D09DD42F21F014A462C
:100B5000084403A90390684601F09FFC08E0A0F553
:100B600000504A461F3803A90390684601F0BDFCB7
:100B70008DE807000004000C03D04FF0FF3041085F
:100B800000E01046B8F1000F03D000220092154695
:100B90001EE0751E05D400F06DFC303262556D1EEE
:100BA000F9D5B3460122084302D000227F1C04E09D
:100BB0002078302801D100227F1E002A099786D094
:100BC0001DE0112D07DA00F055FC303262556D1C26
:100BD00050EA0102F5D1084302D00098C8B10EE0F6
:100BE0000021681E05E0235C625C63542254401EB1
:100BF000491C8142F7DBAB46A81B401E0990002030
:100C000004F80B000B98099AC0F80880C0E9002B83
:100C10007CE711264FF0000859E72DE9F04F884690
:100C20000446D21D22F0070191B0D1E90001CDE9BF
:100C30000A0105F072F902460B98C00F01D02D2071
:100C400007E02068810701D52B2002E0202101EA7E
:100C5000C000032A099001D0072A05DB034641465C
:100C6000204600F055FC0BE12078800601D5E069B4
:100C700000E00620B8F1650F814606D0B8F1660F96
:100C800018D0B8F1670F70D131E00020B9F1110F21
:100C9000009001DB112301E009F101030AAA01A977
:100CA0000CA8FFF7E4FEDDE90C70002609F1010550
:100CB000834647E001204B4600904FF000470AAAC8
:100CC00001A90CA8FFF7D3FEDDE90DB00C995D4634
:100CD000002610B909F101000D18B9EB050003D485
:100CE000C0F1FF3609F10105A5EB09002BE0B9F1D0
:100CF000010F01DA4FF001090020B9F1110F009046
:100D0000484601DD112300E003460AAA01A90CA808
:100D1000FFF7ADFEDDE90C704D46002683462078D6
:100D200000070AD4AB4500DA5D4601A8012D04DDB9
:100D3000411911F8011C302907D04F4502DA17F18B
:100D4000040F04DA012082460FE06D1EEEE7002F4B
:100D500002DCED1B3E4403E0781CA84200DD7D1C54
:100D6000B81B00F1010A4FF000472078000703D4B8
:100D7000AA4501DB4FF0FF3A0021B7F1004F0DF11A
:100D800043088DF8431024D002202B23002F01DAD2
:100D90007F422D230A21021EA0F1010000DC5FB179
:100DA00097FBF1FC97FBF1F201FB1C7C17460CF161
:100DB000300C08F801CDEEE7A8F10100037021889E
:100DC000090501D5452100E06521A0F1010800F8E1
:100DD000011C09980FA9A1EB0807FF1D00B1012014
:100DE000411901EBEA70A1693844081A401EA0615C
:100DF0002078C00602D42046FFF776FA099828B179
:100E0000D4E901219047206A401C20622078C00666
:100E100022D52046FFF768FA1EE0002E04DBB3451A
:100E200002DD01A8805D00E03020D4E90121904777
:100E3000206A401C2062761CAAF101005FEA000AC9
:100E40000AD100F00FFBC0680168405CD4E90121C1
:100E50009047206A401C2062281EA5F10105DCDCB9
:100E600007E0D4E9012118F8010B9047206A401CE3
:100E70002062381EA7F10107F3DC2046FFF74AFA8B
:100E8000032011B043E6000001694A1C02610878A2
:100E9000704700B58FB0CDE90131002105910549BA
:100EA0007944CDE9031011466846FFF781FA0FB087
:100EB00000BD0000E5FFFFFF0A6802F8010B0A60B1
:100EC0007047D1E900239A4202D2531C0B60107084
:100ED00070473A2800D2303820F02002412A01D34E
:100EE000A2F13700884201D34FF0FF307047000075
:100EF0002DE9FF4F064689B00878FF2806D0491C27
:100F00002D2805D000244FF0000908E000200CE057
:100F10000124F8E709EB8903491C00EB4309087831
:100F2000FF28F7D114B1C9F10000814610780025DF
:100F30002C46AA4629462D2801D02B2804D1521C24
:100F40002D2813D0002082468B461078FF280FD022
:100F50004FF0000C0A21521CA5FB017804FB018113
:100F600005FB0C11C5194BEB0104EEE70120EAE784
:100F7000002108464FF00000BAF1000F02D000EB4C
:100F800080004008C0F38158B8F1010F01DD4FF037
:100F9000FF380C9809EB000755EA040009D04FF020
:100FA000020917F5FA7F0BDA4FEACA70C6E900B0FA
:100FB00012E04FEACA70C6E900B00DB0BDE8F08F8C
:100FC000B7F5FA7F0DDDF0487844D0E90010C6E9A6
:100FD000001040EACA70706000F048FAC0F8009053
:100FE000EBE7391E02DAC8F1000200E0424600DAFF
:100FF000794206A800F086FC06AB93E8070003AB35
:1010000083E8070044F23E005BEA04010090584682
:1010100004D144F21E012C465D460091210C0904C6
:10102000014306D10099240444EA15442D041039E3
:10103000009104F07F41014306D10099240244EA63
:1010400015642D020839009104F07041014306D166
:101050000099240144EA15742D01091F009104F040
:101060004041014306D10099A40044EA9574AD00C3
:10107000891E009104F00041084304D100986D19C5
:101080006441401E009042466846002FCDE901456C
:1010900003A902DD01F03DFA01E001F012FABAF114
:1010A000000F04460D4601D084F0004440F2FF7763
:1010B00024F00040284303D0C4F30A50B84212D1B0
:1010C00000F0D4F9C0F80090C4F30A50B8420AD135
:1010D000AE487844D0E90010C6E9001004F00041A1
:1010E0000843706069E7C6E9005466E72DE9FF4FE1
:1010F0001F464FF0000A4FF0FF38454691B0D7E940
:101100000146CDF83CA000F0ADF9C0680168405C34
:101110001090B96912986D1C8847396A81468847D2
:101120000028F6D1B9F1FF3F0AD0002E24F4D06494
:1011300011DDB9F12B0F08D0B9F12D0F0BD102E061
:10114000404615B03AE744F48064B96912986D1CC2
:101150008847761E8146600504A901D52D2000E050
:101160002B20002E01F1010B0DF130088DF810003D
:101170003FDDB9F1690F08D0B9F1490F05D0B9F1D8
:101180006E0F02D0B9F14E0F1CD13B4601A800955D
:1011900080E85002DDE912126FF0020009F0F6F962
:1011A000C11CCED10EE0B96912986D1C88478146EA
:1011B0001398761E44F4007405600F98401C002EAE
:1011C0000F9016DDB9F1300FEDD0B9F1780F02D0E4
:1011D000B9F1580F0DD10F9801280AD13B46CDE93E
:1011E0000054DDE91212001F029609F0CDF9C11C6E
:1011F000A7D1109989453ED144F0800406E01399A7
:10120000681CAAF1010A44F400740860B9696D1CF5
:101210001298761E884730288146F0D02BE010992E
:10122000894505D1200603D4761E44F0800418E0D9
:10123000484604F0ECFE08B3761E0DF123018B4501
:1012400044F4007408D2A9F130000BF8010B200619
:1012500007D5AAF1010003E0200602D40AF101003B
:101260008246A00502D51399681C0860B9691298D6
:101270006D1C88478146002ED1DC53E0002E51DDE5
:10128000B9F1650F02D0B9F1450F4BD1A00549D591
:10129000B9696D1C1298761E24F440748847002E9C
:1012A00081460CDD2B2804D0B9F12D0F07D144F471
:1012B0008074B96912986D1C8847761E8146E005D6
:1012C00001D52D2100E02B2108F8011BCDF800806D
:1012D00021E0761E0DF13901884544F400740CD2EA
:1012E000A9F1300010F0FF0088F8000002D1009949
:1012F000884509D908F1010806E0E00501D5244830
:1013000001E042F20F708246B96912986D1C88475D
:10131000814613980560002E04DD484604F077FEF0
:101320000028D6D1F96912988847FF2053468BF8D8
:10133000000088F8000000200A900B9004AA0CA975
:101340000AA8FFF7D5FDA00502D46FF00100F8E66A
:1013500014F0240F0AD0E00714D13868DDE90A122E
:10136000031D3B600068C0E900120BE00AA9684653
:1013700004F0F6FDE00705D13868009A011D3960D8
:10138000006802602846DCE67C9D0000729C00003C
:10139000F1D8FFFF026811441378016018467047C6
:1013A000D1600549794451610449794411620021B1
:1013B0001161114600F0ECB8EDFFFFFF5101000094
:1013C000426842B1016811F8013B23B1521EC0E9E5
:1013D0000012184670470121C160881E704742689C
:1013E0005AB1C368016843B983688B4205D0491E6E
:1013F000521CC0E90012002070474FF0FF307047C8
:1014000010B5203AC0F00B80B1E81850203AA0E89F
:101410001850B1E81850A0E81850BFF4F5AF5FEAD3
:10142000027C24BFB1E81850A0E8185044BF18C986
:1014300018C0BDE810405FEA827C24BF51F8043B2D
:1014400040F8043B08BF7047D20728BF31F8023B81
:1014500048BF11F8012B28BF20F8023B48BF00F815
:10146000012B7047004870474C0C00200048704723
:101470002C0C002030B5B0F10A024FEA900E71F149
:1014800000034EEA817EB0EB0E0061EB91014FEA62
:10149000101E4EEA017E10EB0E0041EB11114FEAD7
:1014A000102E4EEA016E10EB0E0041EB11214FEAB7
:1014B000104E4EEA014E10EB0E0041EB1141401868
:1014C00041F100014FEAD00040EA41704FEAD101FA
:1014D00010EB80054FEA810444EA907444EB010468
:1014E0006D1944EB0404521BA3414FF0000348BFA5
:1014F0000A3200D530BD401C41F1000130BD10B5AD
:10150000044600F097FA0068005D00F0010010BD8D
:101510002DE9F0411F46044603260168072A01F41D
:10152000006004DB08B116A505E016A503E008B1CC
:1015300015A500E015A521F010002060A069C01ECF
:10154000A0610FB1401EA0612046FEF7CDFE4FB155
:10155000D4E9012138469047206A401C2062C01C13
:10156000206206E0206AFAE7D4E9012115F8010BB0
:101570009047761EF8D22046FEF7CCFEBDE8F081FB
:101580004E414E006E616E00494E4600696E660027
:101590002DE9F34F4FF0000A0C4656468DB001205E
:1015A0000C9001F10C000B9062690B98012190479F
:1015B000051E2DD0252D2CD0216A8847C0B1626927
:1015C0000B9801219047216A88470028F7D162696A
:1015D000411E0B98904700E0761CA1690D98884742
:1015E000216A88470028F7D1E1690D988847DBE731
:1015F000A1690D988847A842074601D1761CD3E718
:10160000E1690D9888477F1C02D1BAF1000F6FD0B5
:101610006BE162690B9800273D46394690472A28BE
:1016200004D162690B98012190470125DFF8D0822F
:1016300062690B9801219047A0F130010A290AD272
:101640004745E5DC07EB870100EB4107303FDFD47E
:1016500045F01005ECE7E90601D46FF000476C286F
:101660000AD04C2814D0682815D06A280DD07428C8
:101670001CD07A281AD01DE062690B98012190478E
:101680006C2802D045F0040514E045F002050DE099
:1016900045F020050AE062690B980121904768280F
:1016A00002D045F0080505E045F4006562690B9835
:1016B00001219047C4E9015765283DD019DC58281D
:1016C0007AD00CDC452837D004DC252826D04128E8
:1016D0009ED131E046282FD0472899D12CE05B28B5
:1016E00077D0612828D063287CD0642823D15AE0A1
:1016F000F6E06F2848D008DC66281DD067281BD08C
:10170000692821D06E2816D127E0702845D073288B
:1017100068D0752847D078280DD14DE0A1690D9883
:101720008847252805463FF469AFE1690D98884749
:101730006D1C3FF46AAFD8E00D9923466A466FF0FE
:10174000010008F01FFFC5E045F0400023464FF0C0
:1017500000026060A80736D43EE0E8077FF447AF98
:101760002068011D21600068290501D506701BE76E
:10177000290701D5068017E7A90703D5F117C0E9A6
:10178000006111E706600FE745F0400023464FF087
:1017900008026060A80716D41EE040F60E0125EA94
:1017A0000100606016E045F0400023464FF00A0259
:1017B0006060A80707D40FE045F040006060A8070C
:1017C00008D5234610220D996FF00100AFF3008079
:1017D00080E007E0102223460D996FF00100FEF72C
:1017E000A1FE77E04FF0000963284F46C8464B46FC
:1017F000CB4602D05B2806D038E0E80601D40120B1
:10180000A060012732E06269D4F80CB00B98012186
:1018100090475E2807D14FF0010949466269D4F824
:101820000CB00B989047216939B900210A4603ABE7
:1018300043F82120491C0829FADBD8B3216949B3B0
:1018400008F1010862690B98012190475D28F4D1E5
:10185000B9F1000F09D0002003A951F82020D2438C
:1018600041F82020401C0828F7DB03AB2069002842
:1018700020794FEA40701ED05B462246CDF80080AA
:10188000CDE901970D9900286FF0010020DAAFF340
:1018900000801FE0C11703AA00EBD1614B1121F0BA
:1018A0001F0102EB8302411A1368012088400343A1
:1018B0001360C7E719E00D99224600286FF0010078
:1018C000009702DAAFF3008004E0FEF7D1FE01E0FA
:1018D000AFF3008000280ADA401C06D10C9820B132
:1018E0004FF0FF300FB0BDE8F08F5046FAE7E90740
:1018F00001D10AF1010A064400200C9054E60000D0
:10190000CCCCCC0C2DE9F047814616468AB0334842
:1019100078440DC88DE80D0030487844801C03AC35
:101920000DC884E80D0041F69B300844372190FB38
:10193000F1F290FBF1F5A5F1800501FB12041B3CCF
:1019400002D56442012000E00020DFF890A080462C
:101950000027FA44AAF1BE0A0DE0E00709D032469A
:10196000684607EB47010AEB810100F0BEFD8DE8F8
:10197000070064107F1C002CEFD1184F7F44AC3F50
:1019800018E0E80714D007EB04100DF1180A90E8EE
:101990000E008AE80E00C068F04201D19819089044
:1019A000324606A903A800F0A0FD03AB83E80700B8
:1019B0006D10641C002DE4D132466946B8F1000F69
:1019C00003A802D000F069FD01E000F08EFDC9E936
:1019D0000001C9F808200AB0BDE8F087DC920000D9
:1019E000004870472C0C00207546FFF7F9FFAE4603
:1019F00005006946534620F00700854618B020B51B
:101A0000FEF708FCBDE820404FF000064FF000074D
:101A10004FF000084FF0000B21F00701AC46ACE896
:101A2000C009ACE8C009ACE8C009ACE8C0098D4603
:101A30007047000010B5FFF715FD001D10BD00BF79
:101A4000E57E000010B5FFF711FD006810BD10B570
:101A50000446FFF70BFD046010BD00002DE9FF4FA9
:101A60001F464FF03C0987B04FF00042DDE91410EB
:101A700001F10108DDF858A002EA4050039000206F
:101A800004908346054604460590B969461E0898A9
:101A90008847AAF1010A0290BAF1000F37DD0298D7
:101AA0002E2815D01021FFF714FA00282ADB4FF05A
:101AB000010B0499014316D0B9F1000F0BDB4A4624
:101AC000C11700F03BFA05430C43A9F1040905E0F6
:101AD0000120059007E008B145F0010501200490C0
:101AE000059800B9361DB969089808F101088847BA
:101AF000BBF1000FAAF1010A0290CDD00999C1F8FB
:101B00000080C9E70298702808D0502806D0F969EB
:101B100008988847BBF1000F14D04FE000200290D6
:101B20000120BBF1000F049009D0B969089808F1B1
:101B300001088847AAF10109B9F1000F07DCF9692A
:101B4000089888476FF001000BB0BDE8F08F2B2894
:101B500004D02D280CD14FF0FF300490B9690898BB
:101B600008F101088847A9F10109B9F1000FE6DD84
:101B7000411CE4D00A21FFF7ACF90028DFDB029911
:101B800008F1010801EB810100EB41000290B96905
:101B9000089888470A21FFF79CF9099AA9F10109D9
:101BA000B9F1000FC2F8008001DD0028E7DAF96919
:101BB000089888470499029800FB016655EA0400DA
:101BC00004D004F04041090002D006E0039898E0F8
:101BD000A40044EA9574AD00B61E04F0004108006C
:101BE00002D16D196441761E159810F0240F03D0B0
:101BF0004FF00B095C4803E04FF028096FF07D00BF
:101C00008246564507DAAAEB06018944B9F1410F2D
:101C100001DD4FF0410901200021A9F1010200F08E
:101C20008DF9024628400B462140084301D001218E
:101C300000E00021501E029143F1FF312840214075
:101C4000084301D0012000E000200299834651EAB8
:101C50000B014FD0002108464FF00000039900F41B
:101C6000400039B100EB80004FF4400100EBD07030
:101C700001EA60008015012802DD4FF0FF3000E02E
:101C800013D0401C36D0029860B3BBF1000F0CD1CA
:101C90004A460120002100F051F928402140084324
:101CA00001D0012000E00020E0B101204A460021DF
:101CB00000F044F9034640190A4661412D1A8C414F
:101CC00011D3B9F1400F09DD159810F0240F02D09F
:101CD000AAF1340603E0AAF1170600E0761C0025FD
:101CE0004FF0004406E05B1E42F1FF3220EA03059C
:101CF00021EA0204CAF10100B04206DA1B49039846
:101D000008430190002000900EE0039AC4F3D32111
:101D1000E80A0A43164940EA44500A433146CDE9ED
:101D20000002684604F068F9159810F0240F0BD0F3
:101D30001598C00715D13868DDE90012031D3B6016
:101D40000068C0E900120CE002A8694604F008F936
:101D50001598C00705D13868029A011D39600068DE
:101D600002604046F0E6000002FCFFFF0000F07F4A
:101D70000000F03F2DE9FF4F92461D4685B04FF021
:101D80000041DDE9124BDDE914727F1E01EA4B5080
:101D9000414940F0FF4940EA0108002122F02000BB
:101DA0004928049102D04E2828D04CE03BA00126BF
:101DB00007C88DE80700A9690698641C88477F1E3C
:101DC000014606D41DF8060018B121F02001814219
:101DD0000BD0E96906988847032E34D0082E32D0FC
:101DE0006FF0010009B0BDE8F08F761C032E01D022
:101DF000082EE0D1601CCAF80000DCE7A96906984B
:101E0000641C88477F1E2AD420F02000412826D158
:101E1000A9690698641C88477F1E20D420F0200002
:101E20004E281CD1A9690698641C88477F1E48F477
:101E3000002849F48009CAF8004001D4282806D0B7
:101E4000E969069888475FEACB7012D022E0A96959
:101E50000698641C88477F1E01D4002803DAE969CC
:101E600006988847BCE72928F1D1641CCAF80040CD
:101E7000E9E71BF0240F07D028680499031D2B60A5
:101E80000068C0E9001805E02868021D2A600068A3
:101E9000C0F800902046A5E70000F07F494E464973
:101EA0004E4954590000000010B50446AFF30080BD
:101EB0002046BDE81040FEF798B900004FF0013C05
:101EC00050F8042B51F8043B9A4221D1A2EB0C03A9
:101ED000934313EACC1317D150F8042B51F8043B69
:101EE0009A4215D1A2EB0C03934313EACC130BD106
:101EF00050F8042B51F8043B9A4209D1A2EB0C0391
:101F0000934313EACC13DBD04FF00000704700BFBF
:101F1000D01A01BAB1FA81F101F0180122FA01F0E8
:101F2000CB40C1F12001DBB2C0B2C01A2CFA01F3E0
:101F3000D11A914311EAC311E6D17047B2F12003DF
:101F40000AD5C2F1200301FA02F120FA03F300FAE4
:101F500002F041EA0301704700FA03F14FF000007C
:101F600070475FEA400C08BF91F0000F4FEA8C23E6
:101F70004FEAC12243EA51514FEA1C5018BF00F505
:101F8000F0404FEA300018BF41F000415FEA6C5C5E
:101F900000F02980BCF1FF3F08BF40F0804070474F
:101FA000130C06BF12044FF0100C4FF0000C130E70
:101FB00004BF12020CF1080C130F04BF12010CF144
:101FC000040C930F04BF92000CF1020CD30F04BF5A
:101FD00052000CF1010C11464FF00002A0F11F005D
:101FE000A0EB0C00704711F0004F08BF704731F0B4
:101FF00000413FF4D5AF0B0C06BF09044FF0100CA5
:102000004FF0000C0B0E04BF09020CF1080C0B0F73
:1020100004BF09010CF1040C8B0F04BF89000CF103
:10202000020CCB0F04BF49000CF1010CCCF12003D2
:10203000A0EB0C0022FA03F302FA0CF241EA0301CE
:1020400000F10100704720F07F4C80EA030023F08C
:102050007F47ACEB070303F57C5300F0004003F12E
:10206000FF032DE980494FEA154B09B44FEA1443A9
:1020700025EA0B4E24EA03480FF2042606EB132749
:1020800049083E785FEA320203FB0667C7F500079E
:1020900007FB06F64FEA54374FEAD64606F102062A
:1020A00007FB066CCCF1005C4FEA1C472CEA074C9E
:1020B00007FB06F40CFB06F504EB15464FEA9616F3
:1020C00034BF00204FF000404FEAD13706FB07FC39
:1020D0004FEA1C4C0CFB0BF7D21B03FB0CF761EB1C
:1020E00007010CFB0EF7B0EB074072EB17420CFB3D
:1020F00008F734BFA2EB0742B2EB074261EB17418E
:102100004FEA0C444FEA910706FB07FC4FEA1C4CD0
:102110000CFB0BF7B0EBC74072EB573203FB0CF72D
:1021200034BFA2EBC742B2EBC74261EB57310CFBA5
:102130000EF7B0EBC70072EB57720CFB08F734BF19
:10214000A2EBC702B2EBC70261EB5771039F4FEAE4
:10215000816141EA921104EBCC044FEAD1374FEA96
:10216000826206FB07FC42EA90124FEA80604FEA67
:102170001C4C0CFB0BF7D21B03FB0CF761EB0701AC
:102180000CFB0EF7B0EB074072EB17420CFB08F7A5
:1021900034BFA2EB0742B2EB074261EB17414FEAB3
:1021A0008C554FEA910704EB9C2406FB07FC4FEA91
:1021B0001C4C0CFB0BF7B0EBC74072EB573203FB28
:1021C0000CF734BFA2EBC742B2EBC74261EB573109
:1021D0000CFB0EF7B0EBC70072EB57720CFB08F765
:1021E00034BFA2EBC702B2EBC70261EB577115EB2C
:1021F0004C254FEA816141EA92114FEA82624FEA2F
:10220000D13742EA901206FB07FC44F100044FEA82
:1022100080604FEA1C4C0CFB0BF7D21B03FB0CF746
:1022200061EB07010CFB0EF7B0EB074072EB1742B6
:102230000CFB08F734BFA2EB0742B2EB074261EB9D
:10224000174115EB1C154FEA813141EA92414FEAE3
:10225000823242EA90424FEA80304FEA0C7644F1F3
:10226000000448EA03434EEA0B484FF0000EB2EB7D
:10227000080C71EB030724BF624639464EEB0E0E85
:102280004FF0000B0018524149414BEB0B0BB2EBE6
:10229000080C71EB03077BF1000B24BF6246394643
:1022A0004EEB0E0E4FF0000B0018524149414BEB24
:1022B0000B0BB2EB080C71EB03077BF1000B24BF97
:1022C000624639464EEB0E0E51EA020718BF46F041
:1022D000010616EB0E7655F1000254F1000103D50C
:1022E000BDE88901BDE80088BDE88901BDE8004876
:1022F000B619524141EB0101A3F1010370478080FF
:102300007F7E7D7C7B7A797877767675747372714F
:1023100071706F6E6E6D6C6C6B6A6A696868676607
:1023200066656464636362616160605F5F5E5E5D99
:102330005D5C5C5B5B5A5A5959585857575656550D
:1023400055555454535352525251515050504F4F6F
:102350004F4E4E4D4D4D4C4C4C4B4B4B4A4A4A49BF
:102360004949484848474747474646464545454402
:1023700044444443434343424242424141410000BA
:1023800046EA0646A3F570534FEA164646EA425619
:102390004FEAD22242EA415210B54FEAD121A3F1CD
:1023A000010300F017F820F0004000F1010C00F0EC
:1023B000004701EB00501146BCF5006F40EA0700F2
:1023C00000D210BD02484FF0000140EA070010BDE6
:1023D0000000F07F002B26D4770021D01CB54FEAF7
:1023E000370703B44FF010004FF010014FF000001A
:1023F0000FBCBDE810400BF1010BBBF1010F08BF92
:102400005FEA170722BF12F1010211F101014FF03B
:10241000004143F1000300F0004043EA0000704730
:10242000F9D35708DAE746EA064613F1400F4FEAB8
:1024300016461FDD13F1200FDFBF16430A460021A9
:1024400020335B42C8D0C3F1200746EA064602FAB1
:1024500007F74FEA164646EA0706C3F1200722FAB5
:1024600003F201FA07F721FA03F14FF0000342EA01
:102470000702B1E746EA020646EA06464FEA164672
:1024800046EA0106BCBF46EA0646360C4FF000039A
:102490004FF000024FF000019EE72DE9C04893463F
:1024A00030B491E8380007C831EA400C48BF34EA3C
:1024B000430C03D5FFF7C7FDFFF78CFFF0BCBDE869
:1024C00000882DE9C048934630B491E8380007C829
:1024D00031EA400C48BF34EA430C03D5FFF7B3FDA3
:1024E000FFF74EFFF0BCBDE800882DE9C0489346D9
:1024F00030B491E8380007C810F0804F08BF13F0DF
:10250000804F03D100F019F8FFF764FFF0BCBDE87D
:1025100000882DE9C048934630B491E8380007C8D8
:1025200010F0804F08BF13F0804F03D100F005F882
:10253000FFF726FFF0BCBDE8008820F07F4780EA67
:10254000030023F07F4C07EB0C03A3F57C5300F052
:102550000040A3F1FE0392F0000F00F0B38095F06D
:10256000000F00F077802DE901494FEA11404FEA52
:10257000144621EA004800FB06FC24EA064708FB53
:1025800006F607FB08F800FB07F718EB06484CEBCC
:10259000164C4FEA124B18EB07484FEA15464CEB26
:1025A000174022EA0B4E0BFB06FC25EA06470EFB02
:1025B00006F607FB0EFE0BFB07F71EEB064E4CEB79
:1025C000164C4FF000061EEB074E4CEB174B18EB6A
:1025D0000B0840F1000018EB0E0B58EB000840F11F
:1025E00000008F1A4FF000013CBFC943661B14BFA7
:1025F000B5EB040C00213CBFC943F61B4FEA17445E
:102600004EEA8E0E27EA04454FEA1C4704FB076298
:102610002CEA074C05FB07F70CFB05F604FB0CFC4A
:1026200016EB074642EB174216EB0C4642EB1C42F8
:102630001BEB060658EB0202414146EA9E0601D515
:10264000BDE80189B619524141EB0101A3F1010333
:10265000BDE801894FEA14454FEA114724EA0546CF
:1026600021EA074C05FB07F406FB07F70CFB06F114
:1026700005FB0CFC11EB074144EB17444FEA1247F2
:1026800011EB0C4144EB1C4422EA074C05FB07F21A
:1026900006FB07F70CFB06F605FB0CFC16EB0746E2
:1026A00042EB174216EB0C4642EB1C456A1854F1FC
:1026B000000148BF7047B619524141EB0101A3F137
:1026C0000103704795F0000F37D04FEA11424FEAEF
:1026D000144721EA024624EA074C02FB07F106FBF5
:1026E00007F70CFB06F402FB0CFC14EB074441EB70
:1026F00017414FEA154714EB0C4441EB1C4125EA06
:10270000074C02FB07F506FB07F70CFB06F602FB7E
:102710000CFC16EB074645EB174516EB0C4645EB54
:102720001C42121951F1000148BF7047B6195241BD
:1027300041EB0101A3F1010370474FEA14454FEA51
:10274000114724EA054621EA074C05FB07F106FB81
:1027500007F70CFB06F24FF0000605FB0CFC12EB32
:10276000074241EB174112EB0C4251EB1C4148BFB1
:102770007047921841EB0101A3F10103704700007B
:1027800038B504460D461C480470457000F0ACF99D
:1027900000F00EF900F0C6F906208DF800000820C0
:1027A0008DF801008DF802401448405D8DF803005B
:1027B0004FF48051124800F0F5FD502000F0FEF873
:1027C000032000F0FBF89DF8000000F0F7F89DF8FA
:1027D000010000F0F3F89DF8020000F0EFF89DF81A
:1027E000030000F0EBF84FF48051054800F0DCFDE9
:1027F000322003F02DFE38BD040A0020D8A50008C1
:10280000000C014010B50A2003F022FE10BD00208C
:1028100001E0411C88B20A28FBDB7047014607290A
:1028200001DD00207047024850F821201046F9E7EA
:10283000080A002010B5374890F82500A0BB35499C
:1028400091F8240000F0E8F8052003F001FEFC20D8
:1028500000F07CF9052003F0FBFD002000F076F984
:10286000192003F0F5FD2B4890F8240020B900F062
:1028700053F82849086209E000F04EF8254991F81C
:102880002410491E234A121D42F82100214890F8C5
:102890002400401CC0B21F4981F82400082838DBFE
:1028A000002081F8240034E0FFE71A4991F8240061
:1028B00000F0C0F8052003F0CBFDFC2000F046F945
:1028C000052003F0C5FD002000F040F9192003F0B9
:1028D000BFFD104890F8240020B900F01DF80D4904
:1028E000086109E000F018F80A4991F82410491E1F
:1028F000084A121D42F82100064890F82400401CA6
:10290000C0B2044981F82400042802DB002081F8C9
:10291000240010BD040A002010B500244FF480519B
:102920000E4800F03FFD012000F048F8FFF76AFF75
:1029300000F016F8040400F013F804EB002400F093
:102940000FF804444FF48051044800F02DFD04F4C6
:10295000000008B1A4F18074204610BD000C0140B5
:1029600070B50024FFF753FF00251AE04FF4005123
:102970000E4800F019FDFFF74AFF6006040E4FF401
:1029800000510A4800F00EFD4FF48041074800F066
:1029900000FD012801D1601CC4B2FFF738FF681C9C
:1029A000C5B2082DE2DB204670BD0000000C0140DE
:1029B00010B5052003F04CFD10BD000070B50446B5
:1029C000FFF725FFFFF723FF00251FE004F080003D
:1029D00028B14FF400410F4800F0E6FC04E04FF44A
:1029E00000410C4800F0DEFC4FF40051094800F0B3
:1029F000DBFCFFF70CFF6006040E4FF400510548A6
:102A000000F0D0FCFFF703FF681CC5B2082DDDDB2A
:102A100070BD0000000C014010B50446072C00DD1D
:102A200010BD082040EA0410C1B2012000F0A0F857
:102A300000BFF5E710B5044624B90121084600F0AF
:102A400097F813E0012C04D12321012000F090F825
:102A50000CE0022C04D14521012000F089F805E0AA
:102A6000032C03D16721012000F082F810BD000083
:102A70003EB504461B4880F825400021024682F8F6
:102A80002410002006E000221649091D41F82020EC
:102A9000411CC8B20828F6DB0121084600F0BAFD47
:102AA0000321022000F0CAFB0820019000208DF8CD
:102AB00008000C208DF8090001208DF80A0001A8FB
:102AC00000F0A8FA09208DF8000003208DF801001D
:102AD0008DF8020001208DF80300684600F020FD0B
:102AE0003EBD0000040A00200EB508200190002021
:102AF0008DF808000C208DF8090000208DF80A00E0
:102B000001A800F087FA09208DF8000003208DF855
:102B100001008DF8020000208DF80300684600F0E7
:102B2000FFFC0EBD10B5002406E00821054800F0AA
:102B300030FC00B903E0641C03488442F5D300BFB5
:102B400010BD000000080140005A620210B50446A2
:102B50004FF48051054800F025FC2046FFF72EFF7A
:102B60004FF48051014800F01FFC10BD000C0140E3
:102B700070B504460D464FF48051094800F012FC30
:102B800044F05000FFF71AFF0020FFF717FF284618
:102B9000FFF714FF4FF48051014800F005FC70BDB1
:102BA000000C014010B5012000F044FD002000F0B1
:102BB00041FD10BD08B5014600200090034800907B
:102BC0000098084400900098008808BD006C004000
:102BD00008B500220092044A0092009A0244009232
:102BE000009A116008BD0000006C004008B501218A
:102BF000082000F00FFD0020084908604FF48070A5
:102C0000ADF8000010208DF8030003208DF80200BD
:102C10006946034800F032FB08BD0000A081214254
:102C2000000C014000BFFEE770B500254FF4803472
:102C300004E0802001F098F800B103E0201EA4F128
:102C40000104F6D100BF0CB9032070BD40F2FF5063
:102C500001F044F82846F8E770B5044605E0154849
:102C6000456B05F0450000B100E0F8E700BF042027
:102C700001F07AF820B1042001F030F8032070BD93
:102C8000012001F071F820B1012001F027F80120A6
:102C9000F5E708480069A04201D01020EFE740F2B4
:102CA000FF50044988630846406908210840C0B2C3
:102CB000E5E700000080014070B500264FF4803544
:102CC00005E01148446B04F0450000B103E0281E04
:102CD000A5F10105F5D100BF15B104F0040028B13C
:102CE0000326042000F0FAFF304670BD012001F0F9
:102CF0003BF818B10126012000F0F0FF40F2FF5030
:102D000000F0ECFF3046F0E70080014010B505E030
:102D10000B48446B04F0450000B100E0F8E700BF49
:102D2000042001F021F820B1042000F0D7FF032097
:102D300010BD40F2FF5000F0D1FF0020F8E7000086
:102D4000008001402DE9F04105460E464FF0000895
:102D500005E01F48476B07F0450000B100E0F8E7C9
:102D600000BF042001F000F828B1042000F0B6FFF5
:102D70000320BDE8F081012000F0F6FF20B1012022
:102D800000F0ACFF0120F4E711480069A84201D02F
:102D90001020EEE740F2FF5000F0A0FF0C4844691D
:102DA00004F4604018B9200C30804046E1E704F498
:102DB000005008B11320DCE704F4804008B1102073
:102DC000D7E704F4004008B10F20D2E74046D0E72F
:102DD0000080014070B500264FF4803505E00F48B3
:102DE000446B04F0450000B103E0281EA5F1010585
:102DF000F5D100BF15B104F0040028B1032604206A
:102E000000F06CFF304670BD04F0400018B10026A1
:102E1000402000F063FF3046F5E7000000800140ED
:102E200021B1026842F00102026004E002684FF63C
:102E3000FE731A400260704701684FF6FE7211403F
:102E400001600021016041608160C1604B4988429E
:102E500008D14A490839496841F00F01474A083A00
:102E600051608AE045491431884208D14349083904
:102E7000496841F0F001414A083A51607DE03F491C
:102E80002831884208D13D490839496841F47061C8
:102E90003A4A083A516070E038493C31884208D1DA
:102EA00036490839496841F47041344A083A51605A
:102EB00063E032495031884208D1304908394968C5
:102EC00041F470212D4A083A516056E02B49643193
:102ED000884208D129490839496841F47001274AD4
:102EE000083A516049E025497831884208D12349A0
:102EF0000839496841F07061204A083A51603CE065
:102F00001F49884206D1011F096841F00F01021FC5
:102F1000116032E01A491431884208D11849091F5A
:102F2000096841F0F001164A121F116025E01449AA
:102F30002831884208D11249091F096841F470619B
:102F40000F4A121F116018E00D493C31884208D128
:102F50000B49091F096841F47041094A121F1160A9
:102F60000BE007495031884207D10549091F09681C
:102F700041F47021024A121F11607047080002409C
:102F80000804024010B50022026847F6F0739A4325
:102F90000C6A8B6823430C6923434C6923438C6977
:102FA0002343CC6923434C6A23438C6A23431A434B
:102FB0000260CB6843600B6883604B68C36010BDE0
:102FC000704710B5082000F011F838B1082000F063
:102FD00007F8FFF72FFC082000F002F810BD0000F2
:102FE00001490860704700001404014001460020B8
:102FF0000022074B1B6803EA0102054B14331B68D0
:103000000B4013B10AB1012000E00020704700001E
:1030100000040140002123498279002A3AD00A465F
:10302000126803689A430B461A600A1D1268036807
:103030009A430B1D1A60027911440A6803681A4307
:103040000A60184A0832126803689A43154B08331D
:103050001A601A1D126803689A43124B0C331A60E7
:103060004279102A0ED11A1F126803681A430D4BB9
:1030700008331A601A1D126803681A43094B0C338F
:103080001A600DE00749427911440A6803681A433F
:103090000A6005E0027911440A6803689A430A60ED
:1030A00070470000000401402DE9FC4107460D4631
:1030B0000026002400200090019008205B49086051
:1030C00010204860402088600020C8604FF4806075
:1030D0000861084600F07EFE1020FFF7BDFD0446A3
:1030E00014B12046BDE8FC815148008800044F49D6
:1030F000086037204860402088600020C8604FF496
:1031000080600861084600F065FE3720FFF7A4FDE7
:1031100004460CB12046E5E74FF0FF304549086012
:1031200008204860302088600220C86000200861C4
:1031300001204861084600F0EDFD00203B49086091
:1031400033204860402088600020C8604FF48060D1
:103150000861084600F03EFE3320FFF77DFD04467F
:103160000CB12046BEE70CE04FF4001000F0FCFD6F
:1031700038B100F029FE4DF82600761C022E00D34F
:1031800006E02D48406B40F22A6108400028EBD051
:1031900000BF082000F0E8FD20B1082000F09EFDEF
:1031A00004209FE7022000F0DFFD20B1022000F0A4
:1031B00095FD022096E7202000F0D6FD20B12020CA
:1031C00000F08CFD06208DE74FF4007000F0CCFD80
:1031D00028B14FF4007000F081FD072082E740F233
:1031E000FF5000F07BFD00980006009901F47F413C
:1031F00040EA0120009901F47F0140EA1120009982
:1032000040EA1160686001980006019901F47F416D
:1032100040EA0120019901F47F0140EA112001995F
:1032200040EA1160286020465CE70000500700205B
:1032300034000020640700200080014030B50022E7
:103240008B071C0F0F2303FA04F20B4B8C1053F85F
:1032500024309343084C8D1044F8253023468C10BD
:1032600053F824308C07240F00FA04F42343024C53
:103270008D1044F8253030BD080001402DE9F041A3
:10328000024600250026002000230024002791F894
:1032900003C00CF00F0591F803C00CF0100CBCF14A
:1032A000000F03D091F802C04CEA050591F800C068
:1032B000BCF1000F31D0146800202BE04FF0010C5E
:1032C0000CFA00F3B1F800C00CEA03069E4220D1CC
:1032D00083004FF00F0C0CFA03F7BC4305FA03FC14
:1032E0004CEA040491F803C0BCF1280F06D14FF05A
:1032F000010C0CFA00FCC2F814C00AE091F803C0FB
:10330000BCF1480F05D14FF0010C0CFA00FCC2F8DB
:1033100010C0401C0828D1D31460B1F800C0BCF123
:10332000FF0F34DD546800202EE000F1080C4FF050
:10333000010808FA0CF3B1F800C00CEA03069E423B
:1033400021D183004FF00F0C0CFA03F7BC4305FAB0
:1033500003FC4CEA040491F803C0BCF1280F05D12A
:1033600000F1080C08FA0CF8C2F8148091F803C0B8
:10337000BCF1480F07D100F1080C4FF0010808FA22
:103380000CF8C2F81080401C0828CED35460BDE869
:10339000F0810246002093680B400BB1012000E051
:1033A00000207047416170470161704700BFFEE730
:1033B00072B6704762B670471CB504460020019093
:1033C0000090214800880004204908600D204860D2
:1033D000402088600020C8604FF480600861084683
:1033E00000F0F8FC1A48406B009002E01848406B6F
:1033F0000090009800F045000028F7D0012000F070
:10340000B3FC20B1012000F069FC01201CBD0420A8
:1034100000F0AAFC20B1042000F060FC0320F5E7D6
:103420000B4800690D2801D01020EFE740F2FF5053
:1034300000F054FC0648406901900198C0F3432015
:1034400020700020E2E70000340000205007002038
:10345000008001400146CA1701EB92729210A1EB65
:10346000820292B9642091FBF0F200FB121050B975
:103470004FF4C87091FBF0F200FB121008B9012064
:1034800070470020FCE70120FAE70020F8E7000081
:1034900008B50121442000F0BDF81C20ADF8000063
:1034A00048208DF8030069460648FFF7E7FE012033
:1034B000ADF8000028208DF8030069460248FFF7A8
:1034C000DDFE08BD001801400008014008B50121DB
:1034D000482000F09FF82020ADF8000010208DF863
:1034E000030003208DF8020069460948FFF7C6FE75
:1034F00020210748FFF758FF2020ADF8000069465B
:103500000448FFF7BBFE20210248FFF74DFF08BD2E
:10351000000C01400018014000BFFEE770470000AA
:1035200070B5002100230F22C47804B3154C246821
:1035300004F4E064C4F5E064210AC1F10403CA4064
:10354000447804FA03F184781440214309010E4CB5
:103550000678A155047804F01F050124AC400578D5
:103560006D11AD0005F1E025C5F8004109E00478D2
:1035700004F01F050124AC40044D0678761145F88F
:10358000264070BD0CED00E000E400E080E100E0CA
:1035900002490143024A1160704700000000FA0529
:1035A0000CED00E0014908627047000000000E4287
:1035B0007047000029B1064A52690243044B5A6120
:1035C00004E0034A52698243014B5A61704700008C
:1035D0000010024029B1064AD2690243044BDA6165
:1035E00004E0034AD2698243014BDA61704700006C
:1035F0000010024029B1064A12690243044B1A61C5
:1036000004E0034A12698243014B1A6170470000CB
:103610000010024029B1064A92690243044B9A61A4
:1036200004E0034A92698243014B9A6170470000AB
:103630000010024001490860704700004004424207
:1036400030B500210022002400232D4D6D6805F0C7
:103650000C0121B1042905D0082923D105E0294D09
:10366000056022E0274D05601FE0254D6D6805F4DB
:103670007012234D6D6805F48034022505EB9242EB
:103680001CB9214D554305600BE01D4D6D6805F4D7
:1036900000351DB11C4D5543056002E0194D5543E1
:1036A000056002E0174D056000BF00BF144D6D6856
:1036B00005F0F0010909154D6B5C0568DD404560BA
:1036C0000F4D6D6805F4E061090A104D6B5C4568AB
:1036D000DD4085600A4D6D6805F46051C90A0B4DE7
:1036E0006B5C4568DD40C560054D6D6805F4404183
:1036F000890B074D6B5CC568B5FBF3F5056130BD03
:103700000010024000127A0000093D007E000020F7
:103710008E00002010B501460022002300204A112F
:10372000012A02D1094C236806E0022A02D1074C83
:10373000236A01E0054C636A01F01F0201249440F2
:103740001C400CB1012000E0002010BD0010024020
:1037500000210B4A11700A4A203A82F820100128F1
:1037600002D0042808D103E00121054A117004E0C9
:103770000521034A117000E000BF00BF7047000040
:103780002010024001490860704700003C0442429A
:103790000249096A0143014A116270470010024060
:1037A000024909888143014A11807047042800407A
:1037B0000348008840F0100001490880704700006D
:1037C00004280040034800884FF6EF710840014983
:1037D000088070470428004070B5002600240025AA
:1037E00000F096F806464548B6FBF0F444480088D9
:1037F000A04255D042490C8040F2B27520E0E91752
:1038000005EB91718910A5EB810129B9642195FB24
:10381000F1F201FB125131B94FF4C87195FBF1F28D
:1038200001FB125141B9B4F5B77F02D3A4F5B774C7
:1038300004E0681C85B206E0A4F26D14681C85B231
:10384000B4F5B67FDBD800BF2E488580002516E092
:103850002C498888FFF7FEFD30B1012D04D11D2CC5
:1038600001D31D3C09E00CE02748405DA04203D88D
:103870002548405D241A00E003E0681C85B21C2C3A
:10388000E6D200BF681C1F4988710846C179601CD8
:10389000814202D001201D490870601C1949C8717D
:1038A0001648B6FBF0F100FB11644FF46160B4FB05
:1038B000F0F0144908704FF46160B4FBF0F100FBC4
:1038C00011403C21B0FBF1F00E4948704FF46160AB
:1038D000B4FBF0F100FB11403C21B0FBF1F201FB25
:1038E0001200084988700B46DA799979988800F0B7
:1038F0002BF804490872002070BD000080510100BF
:1039000040000020F8090020CCA50008000000209D
:10391000002103480188001F008841EA00407047E9
:103920001C28004001460020064A12880A40D0B2F6
:10393000044A121F12880A4012B108B1012000E0A7
:103940000020704704280040F0B503460C46154699
:10395000642093FBF0F0C6B2642093FBF0F700FB09
:103960001730C1B2132E02DD01F16400C1B2084666
:10397000CF1701EB977701EBA707BAB2072092FBAD
:10398000F0F700FB172082B25719601EDFF82CC039
:103990001CF80000384482B2CF1701EB9777BF10B4
:1039A000A1EB87071FB9032C01DA501E82B2072052
:1039B00092FBF0F700FB1720C0B2F0BDC0A50008D5
:1039C00010B50120FFF7AEFF08B1FFF705FF022099
:1039D000FFF7A8FF20B10220FFF7E2FEFFF7FCFE91
:1039E0000520FFF7DDFE00F007F910BD29B1064AFA
:1039F00012880243044B1A8004E0034A128882436F
:103A0000014B1A8070470000002800402DE9FC5F40
:103A100005460E4617469846DDE90DABDDF83090B9
:103A2000002401214FF0C050FFF7D4FD0120FFF723
:103A3000B9FD012D06D00420FFF7BCF845F2500176
:103A4000884239D0FFF7AEF80120FFF781FE04E08D
:103A5000601CC4B20A2003F00DFB4120FFF75AFEA0
:103A600008B9FA2CF4DBFA2C02DB0120BDE8FC9F3C
:103A70004FF48070FFF78CFE0120FFF783FE00F00B
:103A8000BBF800F0C3F800F0B7F8FFF791FE47F677
:103A9000FF7000F0A1F800F0AFF84B4642463946FF
:103AA0003046CDE900AB00F025F8FFF78BFE45F27C
:103AB00050010420FFF78CF800F0A8F80121084617
:103AC000FFF794FF00F098F800F004F8FFF784FE89
:103AD0000020CBE708B503208DF8000000208DF80A
:103AE00001008DF8020001208DF803006846FFF701
:103AF00017FD08BD2DE9F05F06460F469046994632
:103B0000DDE90AAB002440F2B270864203DB40F6E6
:103B10003300864202DD0120BDE8F09F40F2B2751D
:103B20000AE02846FFF796FC10B12048044401E063
:103B30001F480444681C85B2B542F2DB781EC7B248
:103B4000002510E01B48405D40F2A321484304EBF0
:103B5000C0143046FFF77EFC18B1012D01D1164884
:103B60000444681C85B2BD42ECDBA8F1010040F2C0
:103B7000A321484304EBC014C9EB4910C0EB092052
:103B800004EB0014CAEB0A1004EB80045C4401212E
:103B90004FF0C050FFF71EFD0120FFF703FD204648
:103BA00000F00CF800F028F80020B5E70085E201ED
:103BB0008033E101CCA500088051010000B5024628
:103BC000FFF7F6FD100C03490880091D0A80FFF776
:103BD000F9FD00BD1828004000B50246FFF7E8FDDA
:103BE000C2F3034003490880091D0A80FFF7EAFD7C
:103BF00000BD00000828004000BF0348008800F016
:103C000020000028F9D070470428004007480088A9
:103C10004FF6F77108400549088000BF0348008847
:103C200000F008000028F9D0704700000428004088
:103C30007CB50546002400200090019000260DB1BF
:103C4000022600E000262248406900F0007008B11A
:103C50000E207CBD1F49098888B26946FFF724FA07
:103C600004460CB12046F4E7019800F4802060B3CC
:103C70001848008800041849086037204860402030
:103C800088600020C8604FF480600861084600F03A
:103C9000A1F83720FEF7E0FF04460CB12046D8E734
:103CA0000D48066006200C494860402088600020CE
:103CB000C8604FF480600861084600F08BF8062069
:103CC000FEF7CAFF04462046C3E72520C1E70000EF
:103CD0000080014034000020500700200149886323
:103CE00070470000008001400149086070470000F3
:103CF000A00030420146034A506820F0FF0008430C
:103D00005060704700800140014908607047000022
:103D10008C05304200210A4B02685A6242689A625E
:103D20001A46D16A21F0F701D0E902231A43036948
:103D30001A4343691A431143014AD1627047000094
:103D40000080014000200649086048608860C86023
:103D500048628862C862034888630020C86370476D
:103D600000800140FF07C00001460020034A526B5B
:103D70000A400AB1012000E00020704700800140A5
:103D80000248006800F00300704700000080014016
:103D900010B500F053FC10BD00210A4A516847F6E7
:103DA000FF629143027D83681A4343681A43C368E4
:103DB0001A4303681A4303691A431143014A5160C5
:103DC0007047000000800140014800687047000013
:103DD000808001400021094B02689A601A46D16830
:103DE0006FF30A01D0E901231A43C3681A43036938
:103DF0001A431143014AD16070470000008001401E
:103E00000549096821F00301034A11601146096858
:103E100001431160704700000080014001490860C3
:103E2000704700008080014070B58CB006460C469B
:103E3000154601210220FFF7BDFB1348FEF7FCFFEA
:103E400000211148FEF7ECFF1048019002960395FF
:103E5000A008049000200590802006908000079024
:103E600080000890002009904FF400500A90002034
:103E70000B9001A90448FFF785F800210248FEF7DE
:103E8000CFFF0CB070BD00004404024080800140B0
:103E900070B50446002516480078032801D1272074
:103EA00070BD1348007838B111480078012803D05C
:103EB0000F480078022818D1022C01D32720EFE701
:103EC000E0B2FFF7B5FE05467DB90A48406820F428
:103ED000C0500849486008464068A1B240EAC12085
:103EE000044948600846406848602846D8E7000012
:103EF0003000002000800140F0B501460020002283
:103F0000BE4B1B7881F85630BD4B1B88A1F854304E
:103F1000BC4B1B681A0E93090B70C2F383034B70E2
:103F200002F003038B70B74B1B68C3F30742CA70E0
:103F3000B44B1B88C3F307220A71B24B1A784A713B
:103F40005B681A0E1301CB80AE4B5B68C3F307426C
:103F5000CB8843EA1213CB8002F00F030B72A94BFC
:103F60009B88C3F30722D3094B72C2F380138B7271
:103F7000C2F34013CB72C2F300130B7300234B73D5
:103F80009E4B1B783BB19D4B1B78012B03D09B4B69
:103F90001B78032B4FD193071B0D0B61994B1A799B
:103FA0000B6943EA82030B61964B9B681A0E0B69FF
:103FB00043EA92130B61C2F3C2030B7502F00703CD
:103FC0004B75904B9B68C3F3074253098B75C2F343
:103FD0008203CB7593075B0F0B768A4B1B89C3F368
:103FE00007220B7E43EAD2130B760B695B1C00247D
:103FF000C1E912340B7E9B1C012404FA03F3DC1785
:10400000D1E91256A5FB037C06FB03C305FB043371
:10401000C1E912730C7A0123A3400B650024D1E996
:1040200012650B6DA6FB037C05FB03C306FB043383
:10403000C1E912732EE0714B1B78022B2AD1714B10
:104040001A7993069B0A0B616E4B9B681A0E0B69DB
:1040500043EA02230B616B4B9B68C3F307420B6976
:1040600013430B61674B1B89C3F307220B695B1C6E
:104070004FF40074A3FB04464FF480630025A4FBB7
:10408000037C06FB03C304FB0533C1E912734FF441
:1040900000730B65C2F3801301F8193F93065B0EA2
:1040A0004B70584B1A7A4B7843EAD2134B7002F09C
:1040B0007F038B70534BDB681A0ED309CB70C2F3AE
:1040C00041130B71C2F382034B7193071B0F8B716A
:1040D0004C4BDB68C3F307428B7943EA92138B7135
:1040E000C2F34013CB7100230B7202F001034B7239
:1040F000444B9B89C3F30722D3098B72C2F380130D
:10410000CB72C2F340130B73C2F300134B73C2F3B1
:1041100081038B7302F00303CB733A4B1A7B530872
:104120000B7401234B74384B1B681A0ECA7419396F
:10413000354B1B68C3F307421402CC85324B1B88F6
:10414000C3F30722CB8D1343CB852F4B1A7814066C
:104150000C635B681A0E0B6B43EA02440C632A4B38
:104160005B68C3F307420B6B43EA02240C63264BE4
:104170009B88C3F307220B6B13430B63224B1A7903
:1041800034235A54204B9B681A0E35235A541E4B25
:104190009B68C3F3074214068C631B4B1B89C3F354
:1041A00007228B6B43EA02448C63174B1A7A8B6BA2
:1041B00043EA02248C63144BDB681A0E8B6B1343A7
:1041C0008B63114BDB68C3F307423C235B5C43EA20
:1041D00012143C235C5413071C0DCC870A4B9B899B
:1041E000C3F30722CB8F1343CB87074B1A7B5408AB
:1041F00040235C54012441235C54F0BD3000002076
:10420000340000207C0700208C0700207CB50025AE
:10421000002401213020FFF7FDF9012140F2024086
:10422000FFF7C8F94FF4F850ADF8000018208DF8EA
:10423000030003208DF8020069463048FFF71EF89E
:104240000420ADF8000018208DF8030003208DF83D
:10425000020069462A48FFF711F88020ADF80000F7
:1042600048208DF8030003208DF802006946244899
:10427000FFF704F8FFF766FD31208DF804000020F9
:104280008DF805008DF8060001208DF8070001A8C3
:10429000FFF746F900F0E4F8044614B900F036F8E8
:1042A00004461CB91748FFF727FE044634B91549E0
:1042B000B1F85410080400F04BFD04461CB901206D
:1042C000FFF7E6FD04461CB10F480078032812D121
:1042D0000C4890F8560020B10A4890F85600012882
:1042E00001D10A2500E004252846FFF703FD002040
:1042F00000F046FD044620467CBD00000010014051
:1043000000140140A00700203000002038B5002430
:1043100001200090FFF734FD08B9252038BD4A4838
:104320000078042821D00020484908600220486015
:10433000C02088600020C8604FF480600861084693
:10434000FFF748FDFEF7B8FC04460CB12046E5E750
:104350003F4840693F4908603D48806948603C48A3
:10436000C06988603A48006AC8603748007858B128
:1043700035480078012807D033480078062803D054
:1043800031480078022816D1002030490860032007
:104390004860402088600020C8604FF48060086159
:1043A0000846FFF717FD69460320FEF7CBFC0446DD
:1043B0000CB12046B2E724480078032816D1BDF896
:1043C0000000000421490860032048604020886004
:1043D0000020C8604FF4806008610846FFF7FAFCCF
:1043E000FEF76AFC04460CB1204697E716480078B1
:1043F000042827D0BDF8000017490860BDF8000068
:1044000000041249086009204860C020886000202C
:10441000C8604FF4806008610846FFF7DBFCFEF7D8
:104420004BFC04460CB1204678E7094840690B492B
:1044300008600748806948600548C069886004488A
:10444000006AC860002069E73000002050070020A3
:10445000008001408C070020340000207C070020F1
:104460002DE9F0470027002400260025A046A1469C
:10447000B2206C4908750020086048608860C860F8
:1044800008610846FFF788FC0320FFF7B9FC01200C
:10449000FFF72AFC00BF12E0002063490860486073
:1044A0008860C8604FF4806008610846FFF792FC9E
:1044B000FEF7BAFB044604B903E0781CC7B24A2FE2
:1044C000EADB00BF14B12046BDE8F0874FF4D57099
:1044D0005549086008204860402088600020C86076
:1044E0004FF4806008610846FFF774FCFEF772FC29
:1044F000044624B901204D4908704FF0804900203E
:104500004949086037204860402088600020C86022
:104510004FF4806008610846FFF75CFC3720FEF727
:104520009BFB0446002C4BD134E000203E49086040
:1045300037204860402088600020C8604FF48060C9
:1045400008610846FFF746FC3720FEF785FB044666
:104550000CB12046B8E7364849EA00003249086005
:1045600029204860402088600020C8604FF48060A7
:1045700008610846FFF72EFCFEF7C8FB04460CB1A5
:104580002046A1E72B484669012080EAD67080F0DA
:1045900001086D1CB8F1000F03D14FF6FF70854282
:1045A000C3D34FF6FF70854202D31B2420468BE70E
:1045B00006F08040061E32D002201C4908702EE012
:1045C0001CE01D48184908600120486040208860B0
:1045D0000020C8604FF4806008610846FFF7FAFBCE
:1045E000FEF794FB04460CB120466DE7114846697E
:1045F000012080EAD67080F001086D1CB8F1000F30
:1046000003D14FF6FF708542DBD34FF6FF70854232
:1046100002D31B24204657E7032004490870204694
:1046200052E700003807002050070020300000202B
:1046300000001080008001400080FF8010B54948D4
:10464000406B00F4807070B347480078012814D1A3
:104650000020464908600C20486040208860002007
:10466000C8604FF4806008610846FFF7B3FB0C2078
:10467000FEF7F2FA3E49087002E000203C4908705B
:104680003848806B40F48070364988630846C06BB8
:104690004CF23A3188433349C863012035490870E8
:1046A0003348007810BDFFE70220FFF75DFB68B1DB
:1046B0000220FFF713FB2B48C06B4CF23A318843C2
:1046C0002849C86302202A490870EBE70820FFF751
:1046D0004BFB68B10820FFF701FB2248C06B4CF28E
:1046E0003A3188431F49C863042021490870D9E73B
:1046F0002020FFF739FB68B12020FFF7EFFA1948B7
:10470000C06B4CF23A3188431649C86306201849F9
:104710000870C7E71020FFF727FB68B11020FFF7EC
:10472000DDFA1048C06B4CF23A3188430D49C8633A
:1047300005200F490870B5E74FF40070FFF714FB30
:1047400070B14FF40070FFF7C9FA0648C06B4CF225
:104750003A3188430349C863072005490870A1E737
:1047600000209FE700800140390000205007002012
:104770003A0000203B0000202DE9F84F8146174603
:1047800098460A9C4FF0000AD3464D464FF0FF363C
:10479000B9F1000F02D12620BDE8F88F0020824930
:1047A000C86282480078022805D10402780A40EAEB
:1047B000C8574FEA682800207D4988604860401E3D
:1047C0000860012048610020C86008610846FFF7C2
:1047D000A1FA7548406900F0007008B10E20DBE7CF
:1047E000002C21DDB4F5006F1EDC601E2040D8B91E
:1047F000204602F091FA00906E48046010206D4946
:104800004860402088600020C8604FF480600861E4
:104810000846FFF7DFFA1020FEF71EFA8246BAF1CB
:10482000000F03D05046B7E72620B5E700980001F7
:104830005F498860084644604FF0FF3008600120FF
:1048400048610220C860002008610846FFF762FA4C
:104850005848076011205749486040208860002070
:10486000C8604FF4806008610846FFF7B3FA112072
:10487000FEF7F2F98246BAF1000F01D050468BE7FD
:104880004D48007800285AD1FEF792FD18E04FF409
:104890000040FFF769FA78B14FF0000B06E042489C
:1048A0008030006845F82B000BF1010BBBF1080FBD
:1048B000F5D32035414E03E00EB904206CE7761E97
:1048C0003948406B40F22A6108400028DFD00820B8
:1048D000FFF74AFA20B10820FFF700FA04205BE74F
:1048E0000220FFF741FA20B10220FFF7F7F902207A
:1048F00052E72020FFF738FA20B12020FFF7EEF929
:10490000062049E74FF40070FFF72EFA28B14FF464
:104910000070FFF7E3F907203EE703E0FFF754FAE2
:1049200028602D1D4FF40010FFF71EFA0028F5D166
:10493000FEF740FD40F2FF50FFF7D0F931E01E488E
:10494000007801282DD1002221464846FFF76CFA55
:1049500000201B4908701B4908701B490870124849
:10496000C06B40F22A3108430F49C8630120FFF7AA
:10497000CBF900E0761E1548006800F4005038B905
:104980001148007820B90E48007808B9002EF1D1FE
:104990000EB9042000E70A48007810B1084890F8E2
:1049A00000A05046F8E600000080014030000020E2
:1049B000640700205007002038000020FFFF7F0020
:1049C0003A000020390000203B0000200004024093
:1049D0002DE9FE4F83460C469146002002900026AA
:1049E00025462C46700240EAD5566D020BF00300B6
:1049F000F0B14FF0000A18E04FF4007000904FEA59
:104A00004A20471946EBE0733A461648FFF7B4FED2
:104A100002904FF4007213495846FBF7C5FE0BF5A0
:104A2000007B0AF1010000F0FF0ACA45E4DB16E052
:104A3000B9F1010F09D14FF400702A4633460090B6
:104A40005846FFF799FE029009E04FF400702A469D
:104A50003346CDE90009584600F006F80290029866
:104A6000BDE8FE8FF80700202DE9FF5F1746984646
:104A7000DDE90E464FF00009CA464FF0FF35A9495F
:104A8000009808600020A849C862A8480078022859
:104A900005D10402780A40EAC8574FEA6828002086
:104AA000A34988604860401E0860012048610020DA
:104AB000C86008610846FFF72DF99B48406900F07F
:104AC000007018B10E2004B0BDE8F09F002C21DD6D
:104AD000B4F5006F1EDC601E2040D8B9204602F0FD
:104AE0001BF9834693480460102092494860402097
:104AF00088600020C8604FF4806008610846FFF7B6
:104B000069F91020FEF7A8F88146B9F1000F03D02B
:104B10004846D8E72620D6E7012E70D906FB04F0D8
:104B2000B0F1007F01D32620CDE74FEA0B1080497A
:104B3000886006FB04F048604FF0FF3008600120F9
:104B400048610220C860002008610846FFF7E2F8CB
:104B5000784807601220774948604020886000202C
:104B6000C8604FF4806008610846FFF733F91220EF
:104B7000FEF772F88146B9F1000F01D04846A2E76E
:104B80006D48007800287DD1FEF712FC1EE04FF43E
:104B90000040FFF7E9F8A8B14FF0000A08E06248CA
:104BA000803000685F49096841F82A000AF1010A6B
:104BB000BAF1080FF3D35B48006820305949086008
:104BC0005E4D03E00DB904207DE76D1E5648406B35
:104BD00040F22A3108400028D9D00820FFF7C4F855
:104BE00020B10820FFF77AF804206CE70220FFF7D5
:104BF000BBF828B10220FFF771F8022063E78EE0CE
:104C00002020FFF7B1F820B12020FFF767F8062039
:104C100059E74FF40070FFF7A7F828B14FF4007080
:104C2000FFF75CF807204EE709E0FFF7CDF83D49B4
:104C3000096808603B480068001D3A4908604FF465
:104C40000010FFF791F80028EFD14FF48070FFF7C4
:104C50008BF820B33548007838B134480078012803
:104C600003D032480078022819D100203149086069
:104C70000C204860402088600020C8604FF48060AD
:104C8000086100E012E00846FFF7A4F80C20FDF7E9
:104C9000E3FF8146B9F1000F01D0484613E7FEF764
:104CA00089FB40F2FF50FFF719F838E022480078FE
:104CB000012834D106FB04F100220098FFF7B4F874
:104CC00000201F49087001201E49087000201E495D
:104CD00008701548C06B40F22A3108431249C86376
:104CE0000846C06A40F00800C86200E06D1E174820
:104CF000006800F4005008B9002DF7D10DB9042068
:104D0000E1E600BF1048007818B90D480078002887
:104D1000F8D00B48007810B1094890F80090484648
:104D2000D1E600003C00002000800140300000205F
:104D3000640700205007002038000020FFFF7F009C
:104D40003A000020390000203B000020000402400F
:104D500010B504460948046007200849486040200F
:104D600088600020C8604FF4806008610846FFF743
:104D700031F80720FDF770FF10BD0000500700203C
:104D800001460020012900D011B9024B197000E042
:104D900026207047380000202DE9FF5F86B01746B7
:104DA0009846149D0026002005900490002481461A
:104DB0000390824602900195DDF818B0DDF818B036
:104DC000BBF1000F03D126200AB0BDE8F09F002000
:104DD000C449C862C44988604860401E0860012018
:104DE00048610020C86008610846FEF793FFBD488F
:104DF000406900F0007008B10E20E5E7BB4800787C
:104E0000022805D10502780A40EAC8574FEA682807
:104E1000002D1FDDB5F5006F1CDC681E2840C8B9E9
:104E2000284601F079FF0590B14805601020B0498F
:104E30004860402088600020C8604FF480600861AE
:104E40000846FEF7C7FF1020FDF706FF06461EB115
:104E50003046B9E72620B7E7A64800880004A449F1
:104E600008600D204860402088600020C8604FF432
:104E7000806008610846FEF7ADFF0D20FDF7ECFEEF
:104E800006460EB130469FE79648406903904FF0C2
:104E9000FF341BE0641E97480088000494490860B2
:104EA0000D204860402088600020C8604FF480607A
:104EB00008610846FEF78EFF0D20FDF7CDFE064681
:104EC0000EB1304680E7874840690390039800F4AC
:104ED000807008B9002CDDD10CB9292074E7844812
:104EE0000760182082494860402088600020C86020
:104EF0004FF4806008610846FEF76CFF1820FDF74C
:104F0000ABFE06460EB130465EE700207A490870D7
:104F10000598000174498860084645604FF0FF30ED
:104F20000860012048610020C86008610846FEF75B
:104F3000F1FE4FF0FF347148007800287BD1FEF776
:104F400037FA43E04FF48040FEF70EFFC8B30198F4
:104F5000A0EB0900202821D20198A0EB090000F065
:104F6000030020B90198A0EB0900800804E0019833
:104F7000A0EB09008008401C02904FF0000A09E0F5
:104F8000DBF80000FEF74AFF0AF1010A0BF1040BFF
:104F900009F1040902988245F2D30FE04FF0000AAC
:104FA00005E05BF82A00FEF739FF0AF1010ABAF1C1
:104FB000080FF6D30BF1200B09F120096FF04044E4
:104FC00004E0FFE70CB90420FEE6641E4548406B90
:104FD00040F21A6108400028B4D00820FEF7C4FE51
:104FE00020B10820FEF77AFE0420EDE60220FEF74D
:104FF000BBFE20B10220FEF771FE0220E4E6102085
:10500000FEF7B2FE20B11020FEF768FE0520DBE6B9
:105010004FF40070FEF7A8FE30B14FF40070FEF7B9
:105020005DFE0720D0E606E0FEF7C4F940F2FF502F
:105030002C4988633EE03148007801283AD110229B
:1050400029460698FEF7F0FE00202D4908702A49EF
:1050500008702C4908702348C06B40F21A3108438D
:105060002049C8630846C06A40F00800C86200E0F2
:10507000641E2548006800F4005008B9002CF7D1E0
:105080001CB9FFF7C3F804209EE64FF0FF3400E0A0
:10509000641E1C48007820B91948007808B9002C13
:1050A000F6D10CB904208FE61548007810B11448E9
:1050B000007889E640F2FF50FEF710FE04A8FEF7E4
:1050C0007BF9064603E004A8FEF776F906463EB9EA
:1050D0009DF810000728F6D09DF810000628F2D0A1
:1050E000304671E600800140640700203000002057
:1050F0005007002034000020390000203800002034
:105100003A0000203B000020000402402DE9FE4F41
:1051100081460C46924600200290002625462C46E9
:10512000700240EAD5566D0209F00300F0B14FF06D
:10513000000B18E04FF4007249461948FBF734FBA6
:105140004FF4007000904FEA4B20471946EBE07394
:105150003A461348FFF720FE029009F500790BF15B
:10516000010000F0FF0BD345E4DB16E0BAF1010FBC
:1051700009D14FF400702A46334600904846FFF7A5
:105180000BFE029009E04FF400702A463346CDE949
:10519000000A484600F006F802900298BDE8FE8F2B
:1051A000F80700202DE9FF5F84B0DDE912470026F3
:1051B000002003900290002580468146019007FB65
:1051C00004FBDDF810A0DDF810A0BAF1000F03D148
:1051D000262008B0BDE8F09F0020D849C862D84911
:1051E00088604860401E0860012048610020C86057
:1051F00008610846FEF78EFDD048406900F0007057
:1052000008B10E20E5E7CF480078022808D1040253
:10521000DDE90601400A40EAC1504912CDE9060124
:10522000002C1FDDB4F5006F1CDC601E2040C8B9E7
:10523000204601F071FD0390C34804601020C2496C
:105240004860402088600020C8604FF4806008619A
:105250000846FEF7BFFD1020FDF7FEFC06461EB116
:105260003046B6E72620B4E7012F6FD907FB04F0DC
:10527000B0F1007F01D32620ABE7B248007838B107
:10528000B0480078012803D0AE48007802282DD11C
:10529000AE4800880004AC490860372048604020D0
:1052A00088600020C8604FF4806008610846FEF7FF
:1052B00091FD3720FDF7D0FC06460EB1304688E759
:1052C000A14807601720A04948604020886000205E
:1052D000C8604FF4806008610846FEF77BFD172028
:1052E000FDF7BAFC06460EB1304672E796490698BD
:1052F000086019204860402088600020C8604FF492
:10530000806008610846FEF765FD1920FDF7A4FCE2
:1053100006460EB130465CE7039800018849886074
:1053200007FB04F048604FF0FF300860012048613F
:105330000020C86008610846FEF7ECFC844800784D
:10534000002871D1451EFEF733F840E0DEE07B48CF
:10535000406B00F48040A8B3ABEB080020281ED2BD
:10536000ABEB080000F0030018B9ABEB08008008B5
:1053700003E0ABEB08008008401C01904FF00009EF
:1053800009E0DAF80000FEF749FD09F101090AF128
:10539000040A08F1040801988145F2D30FE04FF0A8
:1053A000000905E05AF82900FEF738FD09F1010966
:1053B000B9F1080FF6D30AF1200A08F120086FF0BE
:1053C000404504E0FFE70DB9042002E76D1E5B488D
:1053D000406B40F21A3108400028B8D00820FEF790
:1053E000C3FC20B10820FEF779FC0420F1E602207E
:1053F000FEF7BAFC20B10220FEF770FC0220E8E6BE
:105400001020FEF7B1FC20B11020FEF767FC05204C
:10541000DFE64FF40070FEF7A7FC30B14FF40070E8
:10542000FEF75CFC0720D4E62CE04FF48070FEF71A
:105430009BFC00B34348007838B14248007801280B
:1054400003D040480078022815D100203E4908606A
:105450000C204860402088600020C8604FF48060C5
:1054600008610846FEF7B6FC0C20FDF7F5FB064682
:105470000EB13046ADE6FDF79DFF40F2FF50FEF75E
:105480002DFC43E03248007801283FD107FB04F1AE
:1054900010220498FEF7C8FC00202E490870012055
:1054A0002D49087000202D4908702448C06B40F237
:1054B0001A3108432149C8630846C06A40F0080011
:1054C000C8624FF0FF3500E06D1E2548006800F40B
:1054D000005008B9002DF7D11DB9FEF797FE042042
:1054E00077E64FF0FF3500E06D1E1C48007820B9CC
:1054F0001848007808B9002DF6D10DB9042068E6E7
:105500001448007810B11348007862E640F2FF506A
:10551000FEF7E4FB02A8FDF74FFF064603E002A8F2
:10552000FDF74AFF06463EB99DF808000728F6D069
:105530009DF808000628F2D030464AE60080014077
:1055400064070020300000205007002034000020B5
:10555000380000203A000020390000203B000020E5
:105560000004024000B587B0012141F20400FEF7BB
:1055700051F8E020ADF8180018208DF81B0003202A
:105580008DF81A0006A92248FDF778FEE021204890
:10559000FDF70AFF01210420FEF73CF81020ADF8CA
:1055A00018008DF81B0003208DF81A0006A9184872
:1055B000FDF764FE10211648FDF7F6FE0020ADF859
:1055C00004004FF48270ADF806000020ADF808002A
:1055D0000220ADF80A000120ADF80C004002ADF841
:1055E0000E002820ADF810000020ADF812000720B2
:1055F000ADF8140001A9074800F052F80121054850
:1056000000F034F8FF2000F007F807B000BD0000FC
:10561000000801400030014070B50546002405E057
:10562000601CC4B2C82C01DD002070BD02210E48F0
:1056300000F028F80028F3D029460B4800F02EF897
:10564000002405E0601CC4B2C82C01DD0020ECE79A
:105650000121054800F016F80028F3D0024800F0B8
:105660001AF8C0B2E1E700000030014021B1028821
:1056700042F04002028004E002884FF6BF731A40F5
:10568000028070470246002013890B400BB10120B5
:1056900000E000207047014688897047818170478B
:1056A00010B50022028802F441520B884C88234333
:1056B0008C882343CC8823430C8923434C89234380
:1056C0008C892343CC8923431A430280838B4FF276
:1056D000FF74234083830B8A038210BD704710B58B
:1056E00000F002F810BD00000CB500200190009001
:1056F0003348006840F480303149086000BF3048CA
:10570000006800F4003000900198401C019000985F
:1057100018B90198B0F5A06FF1D12948006800F4DC
:10572000003010B10120009001E0002000900098AE
:10573000012843D12348006840F010002149086047
:105740000846006820F0030008600846006840F042
:10575000020008601A4840681949486008464068D5
:1057600048600846406840F48060486008464068E9
:1057700020F47C1048600846406840F4E810486017
:105780000846006840F08070086000BF0C48006860
:1057900000F000700028F9D00948406820F00300AC
:1057A000074948600846406840F00200486000BF72
:1057B0000348406800F00C000828F9D10CBD000037
:1057C0000010024000200240042808D14FF0E021E0
:1057D000096941F004014FF0E022116107E04FF048
:1057E000E021096921F004014FF0E02211617047C6
:1057F0007047000010B51348006840F001001149DF
:10580000086008464068104908400E49486008464C
:1058100000680E4908400B4908600846006820F4FB
:10582000802008600846406820F4FE0048604FF47D
:105830001F008860FFF753FF4FF0006004490860C5
:1058400010BD0000001002400000FFF8FFFFF6FE50
:1058500008ED00E010B50121064800F02AF840B13B
:105860000121044800F016F803480068401C024972
:10587000086010BD002C01404400002021B10288C6
:1058800042F08002028004E002884FF67F731A40E3
:1058900002807047CA430282704721B1028842F0F9
:1058A0000102028004E002884FF6FE731A40028073
:1058B000704730B50246002000230024158A05EA0F
:1058C0000103958905EA010413B10CB1012000E040
:1058D000002030BD1AB183890B43838102E08389A4
:1058E0008B438381704700007FB504460D46164602
:1058F000022C09DB072C07DCA11E012202FA01F0B1
:105900001146FDF767FE0EE0012C04D10121C8020B
:10591000FDF780FE07E0082C04D101214803FDF7C4
:1059200079FE00E07FBDADF80450ADF808600020BE
:10593000ADF80A00ADF806008DF80C00611E174A9C
:1059400052F8210001A900F03BF8611E134A52F8F9
:10595000210001221146FFF7BDFF611E0F4A52F8D8
:1059600021000021FFF78AFF601E0D49085C8DF8B9
:10597000000002208DF801008DF8020001208DF852
:1059800003006846FDF7CCFD611E044A52F8210071
:105990000121FFF782FF00BFC4E70000480000209C
:1059A0006800002070B505460C4604B970BD601E45
:1059B00082B247212846FFF797FF00BFF6E70000B5
:1059C000002202881D4B98420ED01D4B98420BD0EE
:1059D000B0F1804F08D01B4B984205D01A4B98422B
:1059E00002D01A4B984204D14FF68F731A404B885D
:1059F0001A43174B984207D0164B984204D04FF6E3
:105A0000FF431A40CB881A4302808B8883850B881A
:105A100003850A4B98420BD0094B984208D00E4B95
:105A2000984205D00D4B984202D00D4B984201D1BF
:105A30000B7A03860123838270470000002C01400B
:105A4000003401400004004000080040000C004009
:105A5000001000400014004000400140004401409C
:105A6000004801407047704710B500BF40F2255113
:105A7000204800F069F998B11F48007840280BDAF7
:105A80001C48001D0088C1B21B4802780078401CE9
:105A9000194B18701948815401201949087027E0E2
:105AA00040F22441134800F04FF908B30122134992
:105AB00014A0FAF74DFE78B90F480078801E0F4900
:105AC000085C0D2808D10C480078401E085C0A28A4
:105AD00002D101200C49087006480088C4B205486C
